{
	"24Payable.sol": {
		"Payable1": {
			"abi": [
				{
					"inputs": [],
					"name": "checkBalance",
					"outputs": [
						{
							"internalType": "uint256",
							"name": "",
							"type": "uint256"
						}
					],
					"stateMutability": "view",
					"type": "function"
				},
				{
					"inputs": [],
					"name": "pay",
					"outputs": [],
					"stateMutability": "payable",
					"type": "function"
				}
			],
			"devdoc": {
				"kind": "dev",
				"methods": {},
				"version": 1
			},
			"evm": {
				"assembly": "    /* \"24Payable.sol\":60:244  contract Payable1{... */\n  mstore(0x40, 0x80)\n  callvalue\n  dup1\n  iszero\n  tag_1\n  jumpi\n  0x00\n  dup1\n  revert\ntag_1:\n  pop\n  dataSize(sub_0)\n  dup1\n  dataOffset(sub_0)\n  0x00\n  codecopy\n  0x00\n  return\nstop\n\nsub_0: assembly {\n        /* \"24Payable.sol\":60:244  contract Payable1{... */\n      mstore(0x40, 0x80)\n      jumpi(tag_1, lt(calldatasize, 0x04))\n      shr(0xe0, calldataload(0x00))\n      dup1\n      0x1b9265b8\n      eq\n      tag_2\n      jumpi\n      dup1\n      0xc71daccb\n      eq\n      tag_3\n      jumpi\n    tag_1:\n      0x00\n      dup1\n      revert\n        /* \"24Payable.sol\":98:138  function pay() payable  public{... */\n    tag_2:\n      tag_4\n      tag_5\n      jump\t// in\n    tag_4:\n      stop\n        /* \"24Payable.sol\":145:241  function checkBalance() public view returns(uint){... */\n    tag_3:\n      callvalue\n      dup1\n      iszero\n      tag_6\n      jumpi\n      0x00\n      dup1\n      revert\n    tag_6:\n      pop\n      tag_7\n      tag_8\n      jump\t// in\n    tag_7:\n      mload(0x40)\n      tag_9\n      swap2\n      swap1\n      tag_10\n      jump\t// in\n    tag_9:\n      mload(0x40)\n      dup1\n      swap2\n      sub\n      swap1\n      return\n        /* \"24Payable.sol\":98:138  function pay() payable  public{... */\n    tag_5:\n      jump\t// out\n        /* \"24Payable.sol\":145:241  function checkBalance() public view returns(uint){... */\n    tag_8:\n        /* \"24Payable.sol\":189:193  uint */\n      0x00\n        /* \"24Payable.sol\":212:233  address(this).balance */\n      selfbalance\n        /* \"24Payable.sol\":205:233  return address(this).balance */\n      swap1\n      pop\n        /* \"24Payable.sol\":145:241  function checkBalance() public view returns(uint){... */\n      swap1\n      jump\t// out\n        /* \"#utility.yul\":7:84   */\n    tag_13:\n        /* \"#utility.yul\":44:51   */\n      0x00\n        /* \"#utility.yul\":73:78   */\n      dup2\n        /* \"#utility.yul\":62:78   */\n      swap1\n      pop\n        /* \"#utility.yul\":7:84   */\n      swap2\n      swap1\n      pop\n      jump\t// out\n        /* \"#utility.yul\":90:208   */\n    tag_14:\n        /* \"#utility.yul\":177:201   */\n      tag_18\n        /* \"#utility.yul\":195:200   */\n      dup2\n        /* \"#utility.yul\":177:201   */\n      tag_13\n      jump\t// in\n    tag_18:\n        /* \"#utility.yul\":172:175   */\n      dup3\n        /* \"#utility.yul\":165:202   */\n      mstore\n        /* \"#utility.yul\":90:208   */\n      pop\n      pop\n      jump\t// out\n        /* \"#utility.yul\":214:436   */\n    tag_10:\n        /* \"#utility.yul\":307:311   */\n      0x00\n        /* \"#utility.yul\":345:347   */\n      0x20\n        /* \"#utility.yul\":334:343   */\n      dup3\n        /* \"#utility.yul\":330:348   */\n      add\n        /* \"#utility.yul\":322:348   */\n      swap1\n      pop\n        /* \"#utility.yul\":358:429   */\n      tag_20\n        /* \"#utility.yul\":426:427   */\n      0x00\n        /* \"#utility.yul\":415:424   */\n      dup4\n        /* \"#utility.yul\":411:428   */\n      add\n        /* \"#utility.yul\":402:408   */\n      dup5\n        /* \"#utility.yul\":358:429   */\n      tag_14\n      jump\t// in\n    tag_20:\n        /* \"#utility.yul\":214:436   */\n      swap3\n      swap2\n      pop\n      pop\n      jump\t// out\n\n    auxdata: 0xa264697066735822122060aa962c29efae46b7d897662aacb8a1c3bd8d9fe4568e22339dab409ef296fa64736f6c634300081a0033\n}\n",
				"bytecode": {
					"linkReferences": {},
					"object": "6080604052348015600e575f80fd5b5060c280601a5f395ff3fe6080604052600436106025575f3560e01c80631b9265b8146029578063c71daccb146031575b5f80fd5b602f6056565b005b348015603b575f80fd5b5060426058565b604051604d91906075565b60405180910390f35b565b5f47905090565b5f819050919050565b606f81605f565b82525050565b5f60208201905060865f8301846068565b9291505056fea264697066735822122060aa962c29efae46b7d897662aacb8a1c3bd8d9fe4568e22339dab409ef296fa64736f6c634300081a0033",
					"opcodes": "PUSH1 0x80 PUSH1 0x40 MSTORE CALLVALUE DUP1 ISZERO PUSH1 0xE JUMPI PUSH0 DUP1 REVERT JUMPDEST POP PUSH1 0xC2 DUP1 PUSH1 0x1A PUSH0 CODECOPY PUSH0 RETURN INVALID PUSH1 0x80 PUSH1 0x40 MSTORE PUSH1 0x4 CALLDATASIZE LT PUSH1 0x25 JUMPI PUSH0 CALLDATALOAD PUSH1 0xE0 SHR DUP1 PUSH4 0x1B9265B8 EQ PUSH1 0x29 JUMPI DUP1 PUSH4 0xC71DACCB EQ PUSH1 0x31 JUMPI JUMPDEST PUSH0 DUP1 REVERT JUMPDEST PUSH1 0x2F PUSH1 0x56 JUMP JUMPDEST STOP JUMPDEST CALLVALUE DUP1 ISZERO PUSH1 0x3B JUMPI PUSH0 DUP1 REVERT JUMPDEST POP PUSH1 0x42 PUSH1 0x58 JUMP JUMPDEST PUSH1 0x40 MLOAD PUSH1 0x4D SWAP2 SWAP1 PUSH1 0x75 JUMP JUMPDEST PUSH1 0x40 MLOAD DUP1 SWAP2 SUB SWAP1 RETURN JUMPDEST JUMP JUMPDEST PUSH0 SELFBALANCE SWAP1 POP SWAP1 JUMP JUMPDEST PUSH0 DUP2 SWAP1 POP SWAP2 SWAP1 POP JUMP JUMPDEST PUSH1 0x6F DUP2 PUSH1 0x5F JUMP JUMPDEST DUP3 MSTORE POP POP JUMP JUMPDEST PUSH0 PUSH1 0x20 DUP3 ADD SWAP1 POP PUSH1 0x86 PUSH0 DUP4 ADD DUP5 PUSH1 0x68 JUMP JUMPDEST SWAP3 SWAP2 POP POP JUMP INVALID LOG2 PUSH5 0x6970667358 0x22 SLT KECCAK256 PUSH1 0xAA SWAP7 0x2C 0x29 0xEF 0xAE CHAINID 0xB7 0xD8 SWAP8 PUSH7 0x2AACB8A1C3BD8D SWAP16 0xE4 JUMP DUP15 0x22 CALLER SWAP14 0xAB BLOCKHASH SWAP15 CALLCODE SWAP7 STATICCALL PUSH5 0x736F6C6343 STOP ADDMOD BYTE STOP CALLER "
				},
				"gasEstimates": {
					"creation": {
						"codeDepositCost": "38800",
						"executionCost": "91",
						"totalCost": "38891"
					},
					"external": {
						"checkBalance()": "334",
						"pay()": "97"
					}
				},
				"methodIdentifiers": {
					"checkBalance()": "c71daccb",
					"pay()": "1b9265b8"
				}
			},
			"storageLayout": {
				"storage": [],
				"types": null
			},
			"userdoc": {
				"kind": "user",
				"methods": {},
				"version": 1
			}
		}
	}
}